:020000040007F3
:1080000030970020DD830700E5830700E783070042
:10801000E9830700EB830700ED8307000000000001
:10802000000000000000000000000000C9830700FD
:10803000F183070000000000F3830700F5830700C9
:10804000F7830700F7830700F7830700F78307002C
:10805000F7830700F7830700F7830700F78307001C
:10806000F7830700F7830700F7830700F78307000C
:10807000F7830700F7830700F7830700F7830700FC
:1080800011980700F7830700F7830700F7830700BD
:10809000F7830700F7830700F1940700F7830700D1
:1080A000F7830700F7830700F7830700F7830700CC
:1080B000F7830700F78307000000000000000000BE
:1080C000F7830700F7830700F7830700F7830700AC
:1080D0007D940700F7830700F78307000000000086
:1080E0000000000000000000000000000000000090
:1080F0000000000000000000000000000000000080
:10810000000000000000000000000000000000006F
:10811000000000000000000000000000000000005F
:10812000000000000000000000000000000000004F
:10813000000000000000000000000000000000003F
:10814000000000000000000000000000000000002F
:10815000000000000000000000000000000000001F
:10816000000000000000000000000000000000000F
:1081700000000000000000000000000000000000FF
:1081800000000000000000000000000000000000EF
:1081900000000000000000000000000000000000DF
:1081A00000000000000000000000000000000000CF
:1081B00000000000000000000000000000000000BF
:1081C00000000000000000000000000000000000AF
:1081D000000000000000000000000000000000009F
:1081E000000000000000000000000000000000008F
:1081F000000000000000000000000000000000007F
:10820000DFF80CD000F03CF9004800474DA607000D
:108210003097002080F308888E46104730B450E82D
:10822000012F93B2C48923448489A34228BF1B1B16
:108230000489A34202BFBFF32F8F002007E0C3EAE7
:10824000020340E80134002CE9D14FF001000A603C
:1082500030BC704750E8012FC2EA024240E80121D9
:108260000029F7D1704730B450E8022F1FFAA2F36B
:10827000C488A34202BFBFF32F8F00200DE0C48942
:1082800023448489A34228BF1B1BC2EA034340E85E
:108290000234002CE8D14FF001000A6030BC704776
:1082A00050E8022FC2EA224240E802210029F7D119
:1082B0007047034653E8022FD988B2EB324F4FF094
:1082C000000017BF92B241EA014142EA014104E0D5
:1082D0005A68B2EB324F08BF012043E80212002A6D
:1082E000E8D1704730B4044654E8000F0D4644E826
:1082F0000053002BF8D1156030BC704730B40446F1
:1083000054E8000F40EA010544E80053002BF7D180
:10831000156030BC704730B4044654E8000F00EAE2
:10832000010544E80053002BF7D1156030BC7047BD
:1083300030B4044654E8000F80EA010544E80053D5
:10834000002BF7D1156030BC704730B4044654E8B8
:10835000000F00EB010544E80053002BF7D1156036
:1083600030BC704730B4044654E8000FA0EB010560
:1083700044E80053002BF7D1156030BC704770B44F
:1083800004464FF0000054E8006F0D68AE4207BF8E
:1083900044E80023012044E800630E60002B1CBF6A
:1083A0000020F0E770BC704730B4044654E8000F7A
:1083B00088422CBF451A054644E80053002BF5D1EE
:1083C000156030BC704700001EF0040F0CBFEFF3C7
:1083D0000880EFF3098003F023BC000006488047C3
:1083E00006480047FEE7FEE7FEE7FEE7FEE7FEE79A
:1083F000FEE7FEE7FEE7FEE7F594070001820700CF
:10840000202A04DB203A00FA02F100207047914054
:10841000C2F1200320FA03F319439040704740EA69
:1084200001039B0703D009E008C9121F08C0042AF2
:10843000FAD203E011F8013B00F8013B521EF9D2D9
:108440007047D2B201E000F8012B491EFBD2704701
:108450000022F6E710B513460A4604461946FFF710
:10846000F0FF204610BD30B504460020034600E072
:108470005B1C934203D2E05CCD5C401BF8D030BD66
:10848000064C074D06E0E06840F0010394E8070061
:1084900098471034AC42F6D3FFF7B6FE7CD80700FD
:1084A0009CD807002DE9F0478AB01446DDF848A0B3
:1084B00055461F4615F9046B0096804689462B46A3
:1084C0000246214602A800F09FFC02A95246084637
:1084D00000F096FC534602AA4146404600F080FC5C
:1084E000534602AA2146204600F07AFC2B464A4613
:1084F00039463846009600F087FC5246394602A8B5
:1085000000F07EFC02A92B4642460846009600F089
:108510007BFC02A92B4622460846009600F074FC1C
:108520002B46424621462046009600F06DFC5346FD
:1085300022464946484600F053FC2B4602AA4146D3
:108540002046009600F060FC5346224639463846E5
:1085500000F046FC2B464A4639463846009600F065
:1085600053FC324602A9204600F018FE0AB0BDE8CE
:10857000F08770B514468AB006460D461A46214665
:1085800002A8019300F03CFC019B02AA3146304650
:1085900000F026FC02A9019B2246084600F020FCC0
:1085A000019B02AA2946284600F01AFC0AB070BDB9
:1085B0008B1802448B4200D1704713F8010D02F86A
:1085C000010DF7E72DE9F0479846B3F902308946E7
:1085D00013F11F0148BF03F13E01DD1D48BF03F148
:1085E0000E05EC104E11944275B228BF1446294670
:1085F000074600F089FA22464946FFF7D9FFB8F945
:108600000230B3EBC40F4FEAC40220D2D21A07EBF8
:1086100086010020C2F120068F420FD308F1240802
:108620002A463946404600F07AFA01280FD02B46F8
:1086300042463846BDE8F04700F0C2BD51F8044D4F
:1086400024FA02F303430B6004FA06F0E4E7BDE802
:10865000F0872DE9F04793F9006092B0044689460F
:108660001046314615461F4600F06EFA002840F0CD
:1086700091803A46494602A800F0C2FB3B4602AA56
:1086800021460AA800F0ACFB02A908463A4600F0D1
:10869000B7FB3B462A464946484600F0A1FB07F196
:1086A00004083A462946284600F0AAFB43462A46D3
:1086B00021462046009600F056FA43462A462946AF
:1086C0002846009600F04FFA43462A46214628469F
:1086D000009600F099FB3B462A462146204600F0D2
:1086E0007FFB4346224621462846009600F03BFA8F
:1086F000434600962A462146204600F034FA236875
:10870000DB074AD5334642462146204600F0D0F9E1
:1087100031468246204600F034FD06F18043013B9D
:1087200054F8232042EACA7244F823203A462146EC
:10873000284600F065FB43460AAA294628460096CB
:1087400000F062FB43460AAA29462846009600F03C
:108750005BFB0AA9084643462A46009600F054FBF4
:108760003B460AAA2146204600F03AFB02AA4346AD
:1087700010462146009600F047FB32462946204627
:1087800000F00CFD4946284600F008FD02A94846C5
:1087900000F004FD12B0BDE8F0873146204600F03D
:1087A000F0FCC3E700487047CCD707002DE9F04F35
:1087B0002DED028BEDB08946789E05901946B6F9ED
:1087C000023096F9004013F11F0748BF03F13E073E
:1087D00047F3471707F1FF3B24AB002543F82B5025
:1087E0006CAB03EB8B0307EE902A4CA896F90120A3
:1087F00043F8805C43F8605CFFF7DAFE96F90120ED
:1088000054A81144FFF7D4FE21464CA800F09CF96F
:108810008046002840F0428154A800F095F903906A
:10882000002840F03D8106F1240A3A464CA9504602
:1088300000F075F9012840F035813A4654A95046B8
:1088400000F06DF90128069040F02C811CAD3B46EC
:10885000524654A9284600F0A2F90DF13008039BB6
:1088600048F82B3017EE902A494640463346FFF72A
:10887000A9FE4146404653462A46009700F012FAA8
:108880000DF5B87B53462A464CA914A8009700F072
:1088900009FA22465846059900F080FCA300079388
:1088A000059B0BEB840903EB8401484600F076FC42
:1088B00006F14403194634A8049300F06FFC049BAE
:1088C000A10059183CA800F069FC331D08EE903A4D
:1088D000594634AA2846009400F096FA4B465A4668
:1088E0003CA934A80096FFF7DDFD18EE902A234638
:1088F0002946284600F053F92A4649465846334649
:10890000FFF737FE039B0893049B0993059B3946A9
:108910004046CDE90A3B00F014FC3946834614A8D2
:1089200000F00FFC5845B8BF58461FFA80FB0BF10A
:10893000FF3109B24046049100F072FC0499B0F195
:10894000000814A818BF4FF0010800F069FC0028C7
:1089500014BF0220002048EA00080DF12009224639
:1089600059F8281024A800F019FC0DF1B009A30053
:108970001944484600F012FC2146284600F0C4F88D
:10898000069B2B60ABF1020824AB08EE105A0FFADD
:1089900088F80493B8F1000F2ADA18EE902A18EE3E
:1089A000101A18EE100A234600F0F9F818EE102AF3
:1089B000049833464946FFF7DCFD04993A46504691
:1089C00000F0ADF8012805D004993B465246084610
:1089D00000F0F6FB013C64B24CAA230653D5039B7E
:1089E000B3FA83F040096DB0BDEC028BBDE8F08FA7
:1089F000334618EE102A0498D6F8A4504946A847E2
:108A000041460CA800F00CFC4146B0F1000B14A844
:108A100018BF4FF0010B00F003FC002814BF022028
:108A200000204BEA000B08AB53F82B1031B3224661
:108A300034A800F0B3FB079B3CA8194400F0AEFB40
:108A400018EE102A33463CA934A8FFF792FD18EE21
:108A5000903A0499009434AA44A800F0D5F9049AF5
:108A600000964B463CA934A8FFF71CFD18EE101ADF
:108A700018EE100A334644AA00F0B2F908F1FF38A4
:108A80000FFA88F886E7049B52F8241053F8243034
:108A90004B40039919430391013C9EE72846A2E706
:108AA0004046A0E703989EE7000000000000000099
:108AB000C3F10803DB0070B501330446002003A5B1
:108AC0005B1920C940CAAD1920C4184720C940CA43
:108AD000754120C420C940CA754120C420C940CA7C
:108AE000754120C420C940CA754120C420C940CA6C
:108AF000754120C420C940CA754120C420C940CA5C
:108B0000754120C4404170BD002310B51C465AB2C7
:108B1000914200DC10BD40F823400133F7E710B567
:108B2000013A52B2130601D5002010BD50F8224080
:108B300051F822309C4205D802F1FF32F2D24FF0B8
:108B4000FF30F2E70120F0E710B500231A465CB2CF
:108B5000A14203DCB2FA82F0400910BD50F8234074
:108B600001332243F3E737B51D469DF918300193D1
:108B70000446FFF79DFF019B38B91A462146284657
:108B8000FFF7CDFF0128019B07D02A46214620464A
:108B900003B0BDE8304000F013BB03B030BDF0B50A
:108BA0000F46A1B006461946384615461C46FFF743
:108BB000CBFF20B13046FFF7A7FF21B0F0BD224622
:108BC0003946684600F0EAFA294608A800F0E6FAB5
:108BD00010A82146FFF798FF012318A81093FFF76C
:108BE00093FF224608A96846FFF799FF28B9224655
:108BF00010A9304600F0D2FADFE7009BDA0709D46B
:108C00002146684600F0BDFA2246294610A800F029
:108C1000E9FBE6E7089BDB0707D4214608A800F03C
:108C2000B0FA2246294618A8F1E7002823461CDDA1
:108C300008AA6946684600F0C3FA2146684600F073
:108C4000A0FA224618A910A8FFF769FF002805DA44
:108C500010A923462A460846FFF72AFF10A92346F3
:108C600018AA084600F0ACFACEE708A96A460846FA
:108C700000F0A6FA214608A800F083FA224610A9BF
:108C800018A8FFF74CFF002805DA18A923462A4642
:108C90000846FFF70DFF18A9234610AA084600F062
:108CA0008FFABEE72DE9F04FB5B004AC9DF9F8504E
:108CB0001E4680462B46204600F0BAF824AB2946D3
:108CC0003046CDE9023400F03CFAC0EB851004B226
:108CD000002C2146B8BF04F11F01634241F3471144
:108CE00003F01F0314A804F01F0758BF5F42FFF7EB
:108CF0000BFF002F08B22BDD14AB002203EB800129
:108D0000C7F1200E1346AB4217D36B00019314AB8F
:108D100003EB85096F1E34AB012603EB8707002C9C
:108D200054DA34AB03EB86062A4656F8C81C404694
:108D300000F034FA35B0BDE8F08F56F823C00CFAD5
:108D400007F0024341F8042B01332CFA0EF2DAE764
:108D500014AB2A46314603EB800000F01FFAD4E73B
:108D60000FFA82FE5AF8C83C53F82EB034AB03EB2E
:108D70008202013052F8803C0B44BBEB030334BF4A
:108D8000012200229B4518BF11465CF8C82C42F80E
:108D90002E30019B42B29A42E2DB731A5E422946B0
:108DA00014A85E4100F0EDF934AB03EB85032946CE
:108DB00053F8802C57F8803C484643EAC273013C84
:108DC00047F8803C24B200F0DCF9A8E734AB00207F
:108DD000C6F1010C014603EB860A03EB8C0CD8E7C5
:108DE00030B51C4691B0054693F90030684600F056
:108DF0001FF8D4F8AC3069462846984711B030BD0A
:108E000013460A46FFF7ECBF37B51D469DF91830EB
:108E10000193044600F0D4F9019B38B12A4621465B
:108E2000204603B0BDE83040FFF742BE03B030BD7E
:108E30002DE9F04F08B4F8CA04B451F8042BA3FB91
:108E4000028940F8048B4FF0000AE4FB629A4FF06D
:108E5000000BE5FB62AB4FF0000CE6FB62BC4FF091
:108E6000000EE7FB62CE51F8042B4FF00008E3FB45
:108E7000628940F8048BE4FB629AE5FB62ABE6FB97
:108E800062BCE7FB62CE51F8042B4FF00008E3FB15
:108E9000628940F8048BE4FB629AE5FB62ABE6FB77
:108EA00062BCE7FB62CE51F8042B4FF00008E3FBF5
:108EB000628940F8048BE4FB629AE5FB62ABE6FB57
:108EC00062BCE7FB62CE51F8042B4FF00008E3FBD5
:108ED000628940F8048BE4FB629AE5FB62ABE6FB37
:108EE00062BCE7FB62CE40F8049B40F804AB40F85C
:108EF00004BB40F804CB40F804EB0CBC052B00F09D
:108F00001E810C68A0F11400A1F11401A2F1140259
:108F100052F804EB4FF0000550F8046BE4FB6E567A
:108F200052F804EB50F8047BE4FB6E6752F804EB54
:108F300050F8048BE4FB6E7852F804EB50F8049B75
:108F4000E4FB6E8952F804EB50F804ABE4FB6E9A34
:108F5000A0F1140052F8044B51F804EB4FF0000C50
:108F6000E4FB6EC540F804CB51F804EBE4FB6E560D
:108F700040F8045B51F804EBE4FB6E6740F8046BC7
:108F800051F804EBE4FB6E7840F8047B51F804EBF5
:108F9000E4FB6E8940F8048B51F804EBE4FB6E9A15
:108FA000A0E80006062B00F0CA800C68A0F11800AB
:108FB000A1F11801A2F1180252F804EB4FF00005DC
:108FC00050F8046BE4FB6E5652F804EB50F8047B47
:108FD000E4FB6E6752F804EB50F8048BE4FB6E7808
:108FE00052F804EB50F8049BE4FB6E8952F804EB52
:108FF00050F804ABE4FB6E9A52F804EB50F804BB53
:10900000E4FB6EABA0F1180052F8044B51F804EBEE
:109010004FF0000CE4FB6EC540F804CB51F804EBB4
:10902000E4FB6E5640F8045B51F804EBE4FB6E671A
:1090300040F8046B51F804EBE4FB6E7840F8047BD5
:1090400051F804EBE4FB6E8940F8048B51F804EB13
:10905000E4FB6E9A40F8049B51F804EBE4FB6EAB22
:10906000A0E8000C072B6AD008B40C68A0F11C0023
:10907000A1F11C01A2F11C0252F804EB4FF0000513
:1090800050F8046BE4FB6E5652F804EB50F8047B86
:10909000E4FB6E6752F804EB50F8048BE4FB6E7847
:1090A00052F804EB50F8049BE4FB6E8952F804EB91
:1090B00050F804ABE4FB6E9A52F804EB50F804BB92
:1090C000E4FB6EAB52F804EB50F804CBE4FB6EBC4F
:1090D000A0F11C0052F8044B51F804EB4FF00003D0
:1090E000E4FB6E3540F8043B51F804EBE4FB6E56AC
:1090F00040F8045B51F804EBE4FB6E6740F8046B46
:1091000051F804EBE4FB6E7840F8047B51F804EB73
:10911000E4FB6E8940F8048B51F804EBE4FB6E9A93
:1091200040F8049B51F804EBE4FB6EAB40F804AB51
:1091300051F804EBE4FB6EBCA0E8001808BCBDE8E5
:10914000F08F013910B549B2041D0A06CBB204D420
:10915000013954F82120002AF7D001335BB273B1F2
:1091600003F18042013A50F82220002022B9013B4D
:1091700000EB431318B210BD52080130F6E7184651
:10918000F9E700EB81010023884200D3704751F8D2
:10919000042D43EA52030B60D307F5E710B5002313
:1091A0005CB2A24200DC10BD51F8234040F82340DD
:1091B0000133F5E70000000000000000000000009F
:1091C000C3F10803DB0070B50133002403A500BF21
:1091D0005B1920C940CAAD1B20C0184720C940CA2E
:1091E000B54120C020C940CAB54120C020C940CAED
:1091F000B54120C020C940CAB54120C020C940CADD
:10920000B54120C020C940CAB54120C020C940CACC
:10921000B54120C06441B4FA84F0400970BD00BF7C
:109220004A11012350F8220001F01F0103FA01F155
:10923000084070472DE9F042082288B00C4681466C
:10924000FFF7ACFFCB6A03930B6B04934B6B059357
:109250008B6B0693CB6B0793002708236A466946FE
:109260006846CDE901770097FFF722FC0823054601
:109270006A4649464846FFF71BFC236B0393636B22
:109280000493A36B0593E36B0544CDE906376A4667
:10929000082369466846FFF70BFC082305446A4625
:1092A00049464846FFF704FC236A0093636A01932A
:1092B000A36A0293A36B0693E36B07930544082309
:1092C0006A4649464846CDE904770397FFF7F0FB25
:1092D000636A0093A36AA26B0193E36A0293049208
:1092E000636BE26B0393CDE90523236A07932E1882
:1092F00008236A4649464846FFF7DAFBE36A0093CB
:10930000236B0193636B0293236A0693A36A07930B
:10931000351808236A4649464846CDE9047703973D
:10932000FFF74EFF236B0093636B0193A36B0293D4
:10933000E36B0393636A0693E36A07932E1A082389
:109340006A4649464846CDE90477FFF739FF636B23
:109350000093A36B0193E36B0293236A0393636A05
:109360000493A36ACDE90537236B0793361A0823C4
:109370006A4649464846FFF723FFA36B0093E36B19
:10938000CDE90137636A0393A36A0493E36ACDE9E5
:109390000537636B0793361A08236A4649464846E1
:1093A000FFF70EFF361A0E4C0FD436B90822494685
:1093B0002046FFF7B4FB01280FD008232246494678
:1093C0004846FFF7FDFE361AEFE7082322464946D6
:1093D0004846FFF76DFB3618F7D408B0BDE8F082B9
:1093E000D0D7070070B5036813F001060546144690
:1093F00005D013460A460146FFF75AFB06462146AA
:109400002846FFF7BEFE46B104F18042013A55F806
:10941000223043F0004345F8223070BD2DE9F04181
:1094200015468AB004460E461C22002103A8FFF709
:1094300011F82F1D95F9008003232A463146204656
:109440000293FFF7DDFC3B4602AA21462046CDF8F9
:109450000080FFF7D9FC2B46324621462046FFF715
:10946000BFFCCDF800803B4605F184022146204632
:10947000FFF779FB0AB0BDE8F08100002DE9F0416B
:10948000194E4FF48271D6F8040130B11748C26802
:10949000521CC260304602F05BFA00254FF4A07700
:1094A00007EB85018AB23046B258BAB189B202F0F0
:1094B0004FFA0E48103000EB0514204603F042FE30
:1094C000616819B1204603F0C3FD07E0A16811B13E
:1094D000204603F0BDFD206800B180476D1C022DC1
:1094E000DED3BDE8F081000000400240C0570020FC
:1094F00002F02ABBF0B5B5480023021D0178101D0B
:1095000001254FF0805406290BD11678360708D173
:109510000678C6F30316032E06D0042E04D0052EBB
:1095200002D0062907D00EE0B4F82463A84FC6F392
:1095300004263E6002E01678360704D10678C6F3AA
:109540000316032E02D0062904D00FE0A24FA14E2D
:109550007E670EE01678360708D10678C6F3031644
:10956000032E06D0042E04D0052E02D0062907D0E3
:109570000EE0D4F84462994FC6F342363E6002E0F2
:109580001678360704D10678C6F30316032E02D0E8
:10959000062906D011E0924E376827F080773760B1
:1095A0000EE01678360708D10678C6F30316032EA8
:1095B00006D0042E04D0052E02D006290AD011E0D0
:1095C0004FF08046C6F80C31C6F81031834E361F76
:1095D000336002E01678360704D10678C6F3031626
:1095E000032E02D0062905D00CE07C4F03266437F9
:1095F0003E600AE01678360704D10678C6F30316F3
:10960000032E02D006290DD014E0764F05263E60C9
:10961000744E78363560734E083633603F263F1DF2
:109620003E6002E01678360704D10678C6F30316CA
:10963000052E02D0062957D062E06B4E36686B4F7C
:109640003E60694E361D36683F1D3E60664E0836E8
:1096500036683F1D3E60644E0C3636683F1D3E60E6
:10966000614E103636683F1D3E605F4E14363668D8
:109670003F1D3E605C4E183636685C4F20373E60BA
:10968000594E1C3636683F1D3E60574E20363668B0
:109690003F1D3E60544E243636683F1D3E60524E9C
:1096A000283636683F1D3E604F4E2C3636683F1DCB
:1096B0003E604D4E303636684C4F40373E604A4E25
:1096C000343636683F1D3E60474E383636683F1D9B
:1096D0003E60454E3C3636683F1D3E60424E403649
:1096E00036683F1D3E6002E01678360708D10678DE
:1096F000C6F30316032E06D0042E04D0052E02D086
:10970000062907D019E0D4F85812394A01F04F0160
:10971000116002E0117809070FD10078C0F303103F
:10972000032803D0042801D0052806D13148016858
:10973000C90702D06FF001010160D4F8300106289A
:1097400008D1D4F83401062804D12B48016841F42B
:109750008061016022487438016841F47001016041
:10976000BFF34F8FBFF36F8F4FF01021D1F800027E
:10977000002803DBD1F80402002822DA1F4A156012
:109780001F480468002CFCD01524C1F8004205686D
:10979000002DFCD0C1F8044201680029FCD0136000
:1097A00001680029FCD0BFF34F8F0D48F0380168E5
:1097B000144A01F4E06111430160BFF34F8F00BF11
:1097C000FDE7124910480860F0BD0000E00F00F00E
:1097D000403501400DF0ADBA00C007403C050040E7
:1097E000FCED00E0105600400404001020C50040CD
:1097F000E40E0040000400403C17004004E5014036
:1098000000E401400400FA050090D00358580020FD
:10981000034808B5002101600068009008BD000001
:109820000001014002E008C8121F08C1002AFAD155
:1098300070477047002001E001C1121F002AFBD1D0
:10984000704700000121202803DA814005480140CB
:1098500003E0402802DA2038814009B10120704736
:1098600000207047FC06FFBD800701D00020704734
:1098700001207047C3688B4206D811440069491E15
:10988000814201D8012070470020704730B585B073
:109890000D46164C1621ADF800101ECC0DF1040C2F
:1098A0008CE81E00124C0221012221706270A0700F
:1098B0000320E070217159206071FE20A07169467B
:1098C00004F109007DDF00280ED1BDF800002A4612
:1098D000411CE17109212172BDF808100844ADF85E
:1098E000080001A9034872DF05B030BD80D407002D
:1098F000905C0020F857002010B586B0062418228E
:1099000008496846FEF78BFD69462046FFF7BEFF13
:10991000002805D1044C207874DF0121207873DF02
:1099200006B010BD90D40700F857002070B5104C59
:10993000A66C656A01F028FA216B08446A1A314462
:10994000814200D10022082300F0ECFD06000DD179
:1099500001F01AFA0022294600F094FBA16A814224
:1099600003D10121A561C4E90701304670BD0000A3
:109970009870002002F08CFA02F08AFA2DE9F84F74
:10998000254C8146924660880E46814241D8002788
:109990004FF6FF788DF80070684600F075F8227871
:1099A0006078A188884201DA401C00E00020C0B243
:1099B000904204D19DF8000000F08AF827E0657815
:1099C0006078884201DA401C00E0002060709DF859
:1099D000000000F07DF8454519D0A068B9F1000FEE
:1099E00040F835A00DD066B16188E068324605FBCD
:1099F00001004946FEF713FDA06800EBC500868014
:109A000002E000EBC50087800020BDE8F88F04204D
:109A1000FBE70920F9E700003858002010B50E4C8C
:109A200003E0401C00E00020207020786178814233
:109A300010D022786188E068A36802FB010003EB84
:109A4000C20153F83220898890472078A188884243
:109A5000E9DAE6E710BD00003858002030B5CB0049
:109A600008339DB293074FF0000401D0072030BDAA
:109A7000044B9A602A44DA605C701C7058809980AC
:109A8000002030BD3858002030B5EFF3108172B699
:109A90000D4A9468012324B10370002900D162B6F5
:109AA00030BD93604FF0E023D3F88051074C254040
:109AB0001560C3F88041D3F8844154605A17C3F845
:109AC000842100220270E8E720750020FC06FFBD1B
:109AD0000B498A68002A11D000280FD1EFF31080BB
:109AE00072B60B684FF0E022C2F800314B68C2F842
:109AF000043100228A60002800D162B6704700005D
:109B00002075002070B5164E154856F8245F846CF9
:109B1000B168AC2901D024B111E0406B04442D1A86
:109B200005E001F045F90446B068AC2807D12A46A3
:109B3000A4F580410B48FEF796FC00280ED02A467B
:109B400021460848FEF78FFC002807D000F076FF7A
:109B500029462046BDE8704001F05ABA70BD0000A9
:109B6000987000200080070030B504462C4995B05D
:109B70004FF6FF70488001208DF812004FF65960B3
:109B8000ADF81000224604A90120A8DF002844D126
:109B9000244B0FCB8DE80F00A11C684662DF002824
:109BA0003BD120491C2260390BA8FEF738FC1E4D22
:109BB000142205F1C401A8681290A0788DF84A001B
:109BC0002868139006A8FEF72AFC12A8069013A88E
:109BD00007902088231D06AA0BA9AADF00281CD104
:109BE0001C2205F1D8010BA8FEF719FCE8681290B9
:109BF000A0788DF84A0068681390142205F1F401EA
:109C000006A8FEF70CFC12A8069013A8079020885F
:109C100004F10C0306AA0BA9AADF15B030BD0000A1
:109C2000F857002058D5070050D40700F0B585B08C
:109C3000044614216846FEF70BFC2078032308280D
:109C40000BD12748C188491E89B2C1808288002A69
:109C50003ED000293CD1C2802370217860786022F8
:109C60008DF800208DF801108DF802006078032136
:109C700001280AD00B2828D100F006FC8DF803003B
:109C8000002000F009FC04211FE0207809281CD2E4
:109C9000DFE800F01B1B1B201B1B051B2000D4E969
:109CA00002706D46E91C666803F056FA04462919ED
:109CB0003046C91C03F050FA044429193846C91C1F
:109CC00003F04AFA2044C01CC1B2684602F09CFE70
:109CD00005B0F0BDD4E90112684602F085FEF2E756
:109CE000F85700202DE9F0411349034600208A6807
:109CF000D4071ED0114CA3421BD04888A0F57F4347
:109D0000FF3B10D042F004028A60132176DF002866
:109D10000FD10B4EC8254FF47A47741C3846A04724
:109D20006D1EFAD101E0087874DFBDE8F04101F062
:109D3000A7BEBDE8F0810000F85700209CD80700BE
:109D400060D4070038B5214C0021227AD20701D017
:109D5000084638BDE0601E4800F028FD0020009055
:109D600001F062F988B91B4813DF70B901F0B2FE47
:109D700058B9684601F0F2FD38B96946012001F092
:109D8000F7FD10B9684601F041FE0028E1D101F06D
:109D90005BFA30B1104801F04BFAA06840F00200C5
:109DA000A06000F08BFB0028D3D10B481C30FFF7DC
:109DB000DBFE0028CDD1FFF79FFD0028C9D1A068A8
:109DC00040F00100A060002038BD0000F8570020DE
:109DD000A4D8070000800700B05C002070B50446DE
:109DE000011D008800226F4D86B021287ED025DC21
:109DF00013287CD018DC01287AD010285BD01128D9
:109E00004AD14FF6FF706880287A400704D4FFF7E4
:109E100073FD08B1FFF7B0FDE96800293CD006B03A
:109E20000220BDE870400847142878D01A2877D05F
:109E30001F2831D16888091D75DF62E0512870D074
:109E40002CDC222828D0232862D0242824D0502893
:109E500022D1554D34F8060FA98888421CD15348A9
:109E600000F06AFC060017D0628904F10C01FEF7CD
:109E7000D6FA18224E496846FEF7D1FA04960195A3
:109E80006089ADF81400684601F002F9002803D09B
:109E90003146464800F072FC06B070BD52287BD0B7
:109EA000552813D05628F7D1A0790028F4D11321D2
:109EB000688876DF25E008886880E96809B10120B4
:109EC00088473B4968887A3975DFE5E7E188F729F3
:109ED00014D28807B0F1404F11D0C91F89B2481E73
:109EE000C21700EB927222F0030202E033E01CE0A2
:109EF00036E0801A081A801D81B200E0F7216888D8
:109F0000B5DF0028C8D006B0BDE87040FFF734BD0B
:109F100000920192A0880022694690DF18E034E0A8
:109F20003AE021E0FFF728FDB6E721486A4690387D
:109F300042F60521806A009002A801906888ADDF92
:109F400008B1FFF719FD00231A46852168887FDFD5
:109F50000028E7D1A0E70092088869468FDFF7E77D
:109F60000021688866DFCCE7A079002894D02146DC
:109F70000D4801F0F1FF00288ED006B004F1080171
:109F8000BDE87040084801F099BE002408882246C8
:109F90002346214686DFB4E7002308881A4619467F
:109FA000B1DFAEE7F8570020CC5C0020A4D8070052
:109FB000E0D40700007800F001007047024900205B
:109FC0000870024801F06CB9B8570020C5C90700F5
:109FD0002DE9FC410646C0074FF000050ED0104F9A
:109FE00000240122385D009500231146019501F0FF
:109FF00058FC641C042CF4D300F024F8B0070DD5F1
:10A00000074E0024361D0022305D032300951146C3
:10A01000019501F046FC641C042CF4D3BDE8FC81DE
:10A02000D8D207000249085C012101F04CBC0000B5
:10A03000D8D207000249085C002101F044BC0000AE
:10A04000D8D2070010B500242046FFF7EBFF641CB0
:10A05000042CF9D310BD10B543689C18446021B995
:10A0600005E013F8010B01F8010B521EF9D2012093
:10A0700010BD00000249CA6B4260096C81607047E4
:10A0800098700020F0B54FF0FF3622B11268D2432D
:10A0900000230A4D0DE03246FAE7C45C6240082412
:10A0A000D70700D037462F4087EA5202641EF7D107
:10A0B0005B1C8B42F1D3D043F0BD00002083B8ED90
:10A0C00010B504460068401C07D0204602F05EFD33
:10A0D0002168814201D1012010BD002010BDF0B5E2
:10A0E000146906468DB020681546271DE0B1022987
:10A0F00020D00A2000906B4609AA304602F030FCBE
:10A1000000280FD009A901A8009A02F0B9FA01AEFF
:10A1100096E80F0005AE86E80F00236869683A46A6
:10A1200005A898470DB0F0BD0DB03046BDE8F04031
:10A1300002F01ABB6946304602F0ACFA0028F1D0B2
:10A14000236869683A46684698470028EAD002982A
:10A150000028F5D1019870600120E3E753685B782F
:10A1600013F0C00303D0402B03D00020704700F051
:10A1700003B8FFF7B4BF00002DE9FF410B4651685B
:10A18000064614464878334D00F00F0210F03000B8
:10A1900055F8225006D0102806D0202808D03028A4
:10A1A00056D13EE022694DE061690120087047E028
:10A1B000022B28D1042A26D84FF0010869463046E0
:10A1C000676902F067FA00281AD009E00B79226962
:10A1D00013FB00226846A84770B13878401C3870DD
:10A1E000029820B1616838784A799042EED301989C
:10A1F0007060029860BB02E04FF00008F7E740464D
:10A2000004B0BDE8F081D4E904300F79027817FB7F
:10A21000023349798A421BD2521C02701A46616885
:10A2200010E008786169072A087009D1606801792F
:10A230002069FEF70DF960682169806802F045FA2F
:10A240002269616804B03046AC46BDE8F041604721
:10A250000020D5E7A8D70700124910B50A680120E9
:10A26000D20301D5000407E00F490A6812F0A90FD4
:10A2700004D0086800F056000860002000F06AFD75
:10A2800068B14FF0A040D0F81005000C10F0010F9D
:10A2900005D00548001F006810F0B10000D0012073
:10A2A00010BD000000040040200500404169002965
:10A2B00001D0C0680847704710B508281BD2DFE8F6
:10A2C00000F004121A1A1A041A040120FFF780FE83
:10A2D0000020FFF7AFFE0120FFF7ACFEBDE8104005
:10A2E0000220FFF79FBE0120FFF79CFEBDE8104053
:10A2F0000220FFF79FBE10BD10B50446032806D00C
:10A30000042C04D0062C08D0072C08D105E00849FD
:10A310004FF4701000F0B0FA01E0FFF74FFE05486F
:10A320004168002903D02046BDE81040084710BD11
:10A33000B5A50700B857002010B50446062802D17D
:10A34000002001F021F804480168002903D02046CC
:10A35000BDE81040084710BDF45700202DE9FC412E
:10A3600080461F4615460E4600240D4800F0D6F9DB
:10A3700038B11120BDE8FC8106EB043001F0AEFAE3
:10A38000641CAC42F8D1064800F0C5F9CDE900578D
:10A39000334600220221404600F02AF80020E9E777
:10A3A000485800202DE9F843104D0F4680461E46C0
:10A3B00091466946286800F082F9040014D01C21F7
:10A3C000FEF746F801202071C4F81490380BC4F849
:10A3D0000080C4E902606946286800F091F902F043
:10A3E0009FFA0020BDE8F8830420FBE7D4D50700DE
:10A3F0002DE9F04387B00446DDE90E8980681D46EB
:10A4000016460F4600280BD018216846FEF720F8A4
:10A4100002A88DF8007080E86003A168684688474C
:10A4200007B0BDE8F08330B50446006887B00D463C
:10A43000806800281FD018216846FEF709F80195AA
:10A44000A0680590207910B1012810D107E0012003
:10A450008DF8000020690290E068039005E002207A
:10A460008DF80000E06800030290606904902068A5
:10A4700081686846884707B030BD0B2803D30B3886
:10A48000C0B200F009B870470249002208780A708B
:10A490007047000010580020014908700B207047D9
:10A4A000105800200149012008707047B85700205B
:10A4B0000149012008707047F05700200EB59DF843
:10A4C000080020F00F00401C20F0F00010308DF844
:10A4D000080068466DDF002819D19DF80100401C76
:10A4E0008DF8010068466CDF002810D10848007A1A
:10A4F000800703D50748011D806901E006A10720F8
:10A5000082B202A87CDF002801D105487ADF0EBDA7
:10A51000F8570020B05C00204466755461726700F3
:10A5200066D407002DE9F04781461D461646884649
:10A53000494502D10020BDE8F087A8EB0900040BD3
:10A5400006F6FF704FF0000A070B00F08BFAA542E9
:10A550002AD22C4628E0A74202D8BA46354601E066
:10A56000A246250300225146484600F017FD002868
:10A57000E1D1681E00F003002A1A00234146484634
:10A58000D21C00F021FD0028D5D10948A7EB0A070D
:10A59000761B016BA94429440163A844002000F004
:10A5A000DFFE5FEA000AC6D1002ED4D15046C2E7D2
:10A5B00098700020FFF702BD0149416000207047FC
:10A5C000A8D5070010B50B4941600B4800F0A6F86C
:10A5D00068B901F0CBFA08491C234FF4EE720874F5
:10A5E0000448A1F5EE71001F006800F055F8002046
:10A5F00010BD0000D8D50700187700200248006879
:10A60000002800D001207047485800200248007AF6
:10A61000002800D0012070471877002070B505464B
:10A6200008680C464A6886682846314601F06EFF85
:10A630006068286104F10C00686170780221B1EB58
:10A64000901F01D1241D2C6170BD000010B50022A7
:10A650004FF48051104600F023F950B90848002209
:10A66000C0F5FC2100F01CF918B9064800F086F985
:10A6700008B101F00DFC00F0B1F8002010BD0000A1
:10A6800000800700B9A2070010B5FDF712FE08B15F
:10A69000002010BD112010BD10B531B1B2FBF3F494
:10A6A00003FB14241CB1092010BD0E2010BD016055
:10A6B0000021416081608281C381084610BD70B570
:10A6C0000C460546FDF7AAFD002802D0218828681F
:10A6D000084470BD10B50A8849888A4203D1FDF745
:10A6E000DFFD012010BD002010BD70B50C460546F1
:10A6F000FDF7B9FD002802D061882868084470BDC4
:10A7000010B50A8849888A4203D1FDF7A3FD0120CC
:10A7100010BD002010BD002100F003B8012100F0A1
:10A7200006B808B56A46FDF7F6FD009808BD08B5FD
:10A730006A46FDF7E3FD08BD38B5044600258DF8EF
:10A7400000506846FFF7A0F92168626808689042E7
:10A750000ED9401E08600178238AE26801FB0325B8
:10A76000227A2168101AC0B20A79824200D2087196
:10A770009DF80000FFF7ACF9284638BD38B505460E
:10A7800000208DF800000C466846FFF77DF9E86868
:10A79000298A201AB0FBF1F12A681068431C136063
:10A7A00001709DF80000FFF793F938BD10B530B186
:10A7B000017A42680368891AC9B21A6006E00E205D
:10A7C00010BD03681A68541C1C601170491EC9B280
:10A7D000F7D2006800210171084610BD10B54FF096
:10A7E000E0224FF0FF314FF48054C2F88011C2F8DC
:10A7F000801200F025FC2046BDE81040AFF3008039
:10A8000070B505461A4888B0C0F5FE21002200F058
:10A8100047F8EFF30580D5E90045C005C00D4FF0BE
:10A82000FF364FF0000181F3148881F3108881F323
:10A83000118881F3138812D020220E496846FDF753
:10A84000EEFD203C2022694620460695FDF7E7FDF7
:10A85000B21F31462046FDF7DDFC08B070BD08B0E0
:10A860002A4631462046BDE87040FDF7D3BC0000C3
:10A8700000800700E0D2070070B5084D04460E4680
:10A88000686802F05FFC002C06D0324621466868FA
:10A89000BDE8704002F048BC70BD0000C057002009
:10A8A000F0B50A0502D1B0F5FE2F01D90720F0BDA1
:10A8B000134D000B491E124F01222E1D103700EBC5
:10A8C000113407F1040C17E04309C3F1000100EB58
:10A8D000411E02FA0EF106D0012B06D0022B06D043
:10A8E000032B08D105E0296005E0316003E0396001
:10A8F00001E0CCF80010401CA042E5D90020F0BDDA
:10A900000006004070B51A4D0024E86A243501287D
:10A9100007D0A52808D0AA2809D0AC280AD0002042
:10A9200070BDFFF703F80BE002F08CF807E0FFF7CB
:10A93000E9F805E002F086F808B9FFF7E3F801242A
:10A94000284600F045FA0B49002008700A4800F03C
:10A9500007FD10B10325284670BD0125002CFAD053
:10A96000012000F0F7F90028F5D00225F3E70000F8
:10A9700098700020F0570020B1A4070070B5274D53
:10A980002849002668602648C1F80007304600F0D4
:10A990008DFC40BBFFF7B6FF20B1012821D0022873
:10A9A00033D105E04FF47014FFF756FC10B929E0DD
:10A9B0004FF4A02400F056F81B4A20211820FFF77E
:10A9C0004DF808B1FEF7D8FF1848016811F0B10F33
:10A9D00003D0016801F04E01016000F017FB10B9CF
:10A9E00002E0FFF7EBFA10E011492046FFF744FFC1
:10A9F000104800F0F5FA40B900F020F8FFF70EF823
:10AA000041DFF9E700F0FAFB08B1032070BD2E70BA
:10AA1000094800F045FCFFF7E1FEF6E7B8570020D3
:10AA20000C00030040000050705800201C0500403E
:10AA3000B5A50700F9A20700A5A4070010B501F00D
:10AA400035F9002803D0BDE8104002F0B7BB10BDB7
:10AA5000034A93680A4601469860184602F064BBB0
:10AA6000C057002070B50E4D2878002817D101F08E
:10AA70001DF9012690B10B480468A4F54864962C92
:10AA800000DA962402F09AFB07492046FFF7E0FF20
:10AA90004FF0E0214FF48030C1F800012E7070BDFE
:10AAA000F157002004050140F9D107004068806893
:10AAB000004710B542680830527900F0F7F80020DE
:10AAC00010BD2DE9F04399B01C4690460D4608464E
:10AAD000DDF88090FFF7EAFF6E6807467079A042C4
:10AAE00000D804462246414611A800F01BF97279AD
:10AAF000494601A800F0DAF801AB224611A905F198
:10AB000008000097FDF752FE18B1002019B0BDE80B
:10AB1000F08348F24250F9E770B516460C460546F8
:10AB200000F0E8F800280ED1AA791946304600F066
:10AB3000EEF8002807D131462046FFF7BAFF00287B
:10AB400001D10149216070BD7052464D2DE9F84F89
:10AB50006C460D46D4E90A68824699461746104964
:10AB6000284600F0BBF80028A54613D16868414686
:10AB700040794200304600F0CAF80028A54609D1C5
:10AB800057B182B04B463A46294650460096FFF7E9
:10AB900098FFA546BDE8F88F48F21050A546F9E7A2
:10ABA0007052464D2DE9F0411D46DDE906871646F7
:10ABB000044600F02DF800280DD12A4631462046E3
:10ABC00000F03CF8002806D13A4641462046BDE850
:10ABD000F04100F002B8BDE8F08170B515460E46B0
:10ABE000044602F0DBFA002807D13EB1606829680C
:10ABF000C268914205D248F2145070BD48F2135019
:10AC000070BD83682A4631462046BDE8704018472B
:10AC100010B550B161B14160096804468847002809
:10AC200002D105482060002010BD48F2015010BD3F
:10AC300048F2105010BD00006E52464870B51546DF
:10AC40000E46044602F0AAFA00280BD146B155B1CF
:10AC500060682A46314643682046BDE87040184780
:10AC600048F2105070BD002070BD00002DE9F04189
:10AC70000B480C4D0C4F401BC608012038700024B7
:10AC800006E000BF55F834008047002805D1641C59
:10AC9000B442F7D3022038700020BDE8F0810000F4
:10ACA0000000000000000000F257002070B51446BC
:10ACB0000D46064600F036F8291930192246BDE83F
:10ACC000704000F02FB830B50C46054600F035F85E
:10ACD00028192146BDE8304000F02FB828B100689F
:10ACE000884205D048F24050704748F210507047F3
:10ACF0000020704728B139B10022C1E90020104678
:10AD0000704748F21050704748F21350704720B116
:10AD1000914205D048F21150704748F210507047E8
:10AD2000002070470244521E04E000BF11F8013BAE
:10AD300002F801398242F9D270470144491E05E008
:10AD400002780B7800F8013B01F801298142F7D223
:10AD50007047000010B50A4C216A01290BD160B17F
:10AD6000E06950B100F010F80022A169FFF78AF9FC
:10AD7000E169814201D0002010BD012010BD00001A
:10AD800098700020AFF300804FF44050074A4168AC
:10AD9000914207D18068411EC1F30B01401A00F6B1
:10ADA000FF7070474FF4805070470000DBE5B151F1
:10ADB00000B5FFF7E9FF054989690A18401E0844F4
:10ADC000C0F30B00101A00F6FF7000BD9870002051
:10ADD000002101604160816001480163704700000B
:10ADE000987000202DE9F0439946274C274F904654
:10ADF0000E460546002301215BB1012B12D0022B28
:10AE00001FD00020381AA0F54050A8421CD20122C1
:10AE10001BE0FFF7CDFFB8F1000F10D0216A012928
:10AE2000F0D00CE0FFF7B0FFB9F1000F05D14FF4FF
:10AE30004051174A4968914201D00121E2E70021BF
:10AE4000E0E74FF48050DDE7002242EA0600884345
:10AE500005D0022B03D25B1CDBB2022BCBD912B183
:10AE60000420BDE8F0831BB107481830FFF7B0FF9E
:10AE7000002020610120606103482430FFF7A8FF13
:10AE800000206562EDE70000987000200080070058
:10AE9000DBE5B15170B504460078092811D2DFE82E
:10AEA00000F0100510112510381013000D461D4933
:10AEB0000320C9688847606900F0E6FAFFF7DDFA09
:10AEC000687070BD084628E00D46A18A206900F030
:10AED000B7FAFFF7D2FA68702846FFF7CBF8E168B7
:10AEE0000029EED02069BDE8704008470C460D49A6
:10AEF0000831081F00F0E6FAFFF7BFFA607001287A
:10AF0000DFD1002000F02CFA0028DAD00A2060708F
:10AF100070BD08464FF48071C160BDE87040FFF716
:10AF2000A9B800001458002070B51A4A0578012409
:10AF3000936C092D2CD2DFE805F02B052B0B0F2B82
:10AF4000252B080000F0EEFE22E000F061FF1FE07C
:10AF50008B60106D48601BE0D2E91454566C2C1BBA
:10AF6000A64203D008204870012411E00024556552
:10AF700054642146D36400F00FFF07490420C968D8
:10AF8000884705E08B60106D48604FF48050C860C2
:10AF9000204670BD987000201458002013460A46C1
:10AFA0000146014800F0B0BB5C58002008B10349DD
:10AFB00000E003490022034800F0BCBBE4D50700D1
:10AFC000B4D507005C58002008B5009313460A4624
:10AFD0000146024800F046FC08BD00005C58002015
:10AFE000084910B508600020FFF7A6F9064800F0F0
:10AFF000E5F9002804D1BDE81040034800F026B868
:10B0000010BD0000F457002039A30700002070474E
:10B010001FB58908002201AB009283E8070068464B
:10B0200018DF04B010BD00001FB5044B0FCB8DE836
:10B030000F00684618DF04B010BD000068D5070097
:10B040004FF48050410408600020704710B50400A0
:10B0500011D00120FFF7AAFF00280BD100F0C8F99A
:10B0600000F0AAFA48B10949081F00F02BFA01289C
:10B0700003D0032010BD072010BD04480838C46069
:10B080000020FFF709FA002010BD00001C58002026
:10B09000816819B1024A1821FEF770BC0720704779
:10B0A000A5B00700AFF3008030B587B00446182282
:10B0B00031496846FDF7B3F920788DF80000227811
:10B0C0002E4D0D2A55D2DFE802F0072D472D2D54C5
:10B0D0002D252D21091C2900012018E04FF080505A
:10B0E000D0F800110191D0F804110291D0F80C11A0
:10B0F00089020491D0F8101189020391006905902A
:10B100002AE06946204600F0DBFE25E0207C8DF831
:10B11000040021E0208AADF804001DE0E968072062
:10B12000884719E020466946062A01D0012A01D144
:10B13000027C2A702A78012A07D0022A08D000202F
:10B14000287005208DF8010006E0FFF7A3FE03E05C
:10B15000FFF7EAFE00280AD0D4E9011268469047BA
:10B160009DF80100012802D0E9680520884707B052
:10B1700030BD0220E6E7000090D5070014580020FB
:10B1800038B1054901600549416001210172002083
:10B1900070470E2070470000A1B10700D9B1070029
:10B1A00010B50C0001464FF0110007D02278052A97
:10B1B00005D2DFE802F00F050D0F0F000E2010BDC5
:10B1C000084600F051F80028F9D10221217010BD85
:10B1D000112010BD082010BD0246082041B10B7897
:10B1E000022B04D1022A05D0032A00D11120704776
:10B1F0000E207047002003220A70704770B50B487C
:10B200000024D0F85C11491C03D1D0F89C01401CEB
:10B2100009D04FF4FE25284600F060FB5722034971
:10B22000284600F073FB204670BD00009870002097
:10B2300010B528B11C220349FDF7F1F8002010BD1C
:10B240000E2010BD9CF1070010B5064C00221821FD
:10B25000201DFEF717FF2168814201D1012010BD9A
:10B26000002010BD9CF1070070B50C4D0400D5F80E
:10B270009C0105F5CE7503D0401C03D0082070BD9D
:10B280000E2070BD00221821201DFEF7FBFE20605D
:10B2900007222146284629DF70BD000000F0070084
:10B2A000014901F069BC000000F007002DE9F047FA
:10B2B000FFF77CFEC0BB1D48FEF702FF1C4E044694
:10B2C0003068FEF7FDFE05462C424FF4DC790FD0C6
:10B2D000164F58213A46042001F05EFC80463A465B
:10B2E0004FF4AE715C2001F057FC18EA000F09D052
:10B2F0003CB14A460D490F48FDF791F80020BDE8E2
:10B30000F0872DB14A460B483168FDF788F806E012
:10B3100049460848FDF79CF806490120486000208E
:10B3200000F00AF80028EAD00320E8E700F0070060
:10B33000245800209870002010B50446064801F0FB
:10B3400025FC05492246A1F55C730860BDE8104064
:10B35000024801F031BC00009870002000F00700A6
:10B3600070B505460020FFF7E7FF040003D103494D
:10B37000284601F001FC204670BD000098700020B6
:10B380004FF48050704700002DE9F041074609480E
:10B39000094D401BC6080020044607E005EBC40029
:10B3A000416838468847002802D1641CB442F5D36E
:10B3B000BDE8F081A4D807009CD807002DE9F04132
:10B3C00007460948094D401BC6080020044606E010
:10B3D00055F8341038468847002802D1641CB4421E
:10B3E000F6D3BDE8F0810000A4D807009CD8070080
:10B3F00030B50E4C0E4D91B0A06B30B101F0FEFD9A
:10B4000018B1606A08B1012000E000202870FFF741
:10B410002DFC202207496846FFF748FC40236A4676
:10B4200005490648FFF778FB11B030BD9870002041
:10B430002858002098D207005874002020D3070015
:10B440002DE9F0410F4C07460D46E06BA26B01263B
:10B450004119914201D9032610E00A492A465C317C
:10B4600008443946FCF7DBFFE06B064A2844E063FA
:10B47000403229463846FEF705FE20643046BDE8D6
:10B48000F08100009870002070B505004FF00104B5
:10B4900004D0B5F5807F03D904240CE003240AE02E
:10B4A00006490020064E08702021306306F138005E
:10B4B000FCF7CEFFB563204670BD00002858002081
:10B4C000987000202DE9F041374C0E460746D4E92C
:10B4D0000E010125814201D0082561E0DFF8CC8012
:10B4E00098F8000028B1FFF763FC3860606A3060AC
:10B4F00056E001F083FD98B32D4890F89C1009B9EF
:10B50000017869B3041D00213960316090F89C30E6
:10B510000A462BB1264C90F83811A03404F1990258
:10B5200094F8590001F0E2FC0546012838D1201DAD
:10B5300000F0ACF80546012832D1012388F800302C
:10B540000F2594F85910002019B994F86820012AA1
:10B5500007D0CA0708D094F85A20012A03D003E084
:10B560001DE0E06E0DE0E06D89070AD594F86010EB
:10B57000012906D10F4A616EC2F5FC22914208D81A
:10B58000084468B1002101250A463060FFF72AFC13
:10B5900008B1042504E0FFF70BFC386000E0052546
:10B5A0002846BDE8F081000098700020285800204F
:10B5B00050720020008007000148007870470000AA
:10B5C000285800202DE9F04306462C482B4D8BB01F
:10B5D00090F89C008846012708B1A43500E00835A2
:10B5E000202002460A90444605F16F0102A8FFF7A9
:10B5F00099FB0AA92248CDE9000123463246214998
:10B60000A0F59870FFF7CEFA1F4C4FF0000928B94B
:10B61000202202A91A48FCF726FF08B1172717E0D5
:10B6200095F8550048B100F00101C0F340023346DF
:10B63000284601F0C7F850B105E00120C4F8209079
:10B64000E0626868A060A06CC4E9098004E0052796
:10B650000D482430FFF7BCFB0B4820213830FCF7A5
:10B66000F7FE0948FF22F4215C30FCF7EAFEC4F83B
:10B670003090A6640BB03846BDE8F08350720020CD
:10B680000075002008D307009870002070B50446AC
:10B6900090F85400012578B394F8550028B101289A
:10B6A00003D0022801D0032829D194F86D00032883
:10B6B00001D0142524E0207AF0B1E068342801D0CC
:10B6C00011251DE0204601F0FBF970B1207800281B
:10B6D00094F8550011D00B4948B1012807D0606893
:10B6E000C96888420CD810250AE0122508E0606875
:10B6F0008968884204D2F6E701E0012800D00F25CE
:10B70000284670BD987000202DE9F041044640683D
:10B7100015461E4602680F466A432046FEF7AAF801
:10B72000206833462A46D0F810C039462046BDE886
:10B73000F041604701600B68114618472DE9F04160
:10B7400028B1016819B1C969BDE8F04108470D4D3C
:10B750000D480024461B14270DE000BF04EB8400B5
:10B7600005EB8000016829B1C969884710B1012043
:10B77000BDE8F081641CB6FBF7F0A042EED80020D3
:10B78000F6E700005C5800207058002004480121B2
:10B790004174007A08B10020704701207047000012
:10B7A00018770020012801D0032808D1044900227D
:10B7B00001284A7400D00020087401F063B8704773
:10B7C0001877002070B50146022801D0032943D123
:10B7D000224C207A00283FD0012831D002282FD1D6
:10B7E0001F4800230229006802D0032928D119E04C
:10B7F000E360027912B1012A22D10BE0D0E905659C
:10B80000721B142A00D314222A4482614569AA4279
:10B810000ED015E00169491C0161426991420FD1C6
:10B82000237213E0E268521CE260082A08D9E36040
:10B83000237202290AD00D21FEF7F5FD01F018F858
:10B84000607C28B1BDE8704000F096B90021F3E7B4
:10B85000BDE8704001F016B870BD000018770020F8
:10B860004C5800202DE9F84304461D4616460F4665
:10B870000846DDF82080FDF7F7FF3046FDF7F4FFBE
:10B880002A4639462046FDF7F5FFCDF800802068AE
:10B890002B463246D0F80CC039462046E047BDE87A
:10B8A000F88370B541EA4201DDE904564FF0A04447
:10B8B00041EA830141EA052104EB800041EA0641A7
:10B8C000C0F8001770BD01224FF0A043824011B1B3
:10B8D000C3F808257047C3F80C25704709490222B0
:10B8E0000A60BFF36F8FBFF34F8F0A1D10600648C9
:10B8F0000268002AFCD000200860BFF36F8FBFF3FE
:10B900004F8F704704E5014000E4014070B50E4CD4
:10B9100001232360BFF36F8FBFF34F8F00230B4DC5
:10B9200008E000BF51F8236040F823602E68002E25
:10B93000FCD05B1C9342F5D300202060BFF36F8FD7
:10B94000BFF34F8F70BD000004E5014000E40140EB
:10B9500008B5002242504058009008BD20B103496C
:10B9600009680160002070470E2070477CD70700EF
:10B97000FEB506460D460846FFF7F0FF002844D105
:10B98000002400940194012706208DF80060ADF892
:10B99000040002948DF80270694620202A6869DF4D
:10B9A00000948DF801708DF80240019402948DF896
:10B9B0000340694640202A6869DF00948DF80060E2
:10B9C000F720ADF8020001940294694623202A680A
:10B9D00069DF0094019402948DF80070694601209B
:10B9E0002A6869DF4FF4B0600090019402946946C0
:10B9F000A1202A6869DF0094019402948DF8004028
:10BA00006946A0202A6869DF0020FEBD60DF0028AB
:10BA100002D1024A012111707047000057580020DE
:10BA200030B51548ADF5017D0078002821D04FF4E0
:10BA3000FA7500BFADF8005280A9684661DF38B1E1
:10BA4000052816D00DF5017DBDE83040FDF794BF07
:10BA50006C460A497DA800F0BBF806E0D0E9002159
:10BA6000204690477DA800F0CAF87F980028E1D0D2
:10BA7000F4E70DF5017D30BD5758002080D7070051
:10BA8000F8B5134C2078C0B10120A07001F046F841
:10BA9000112814D0022001F059F800258DF800502B
:10BAA0006846FDF7F1FF11DF064625709DF800009E
:10BAB000FEF70EF82EB13046F8BD0820F8BD002084
:10BAC000F8BDA57001F052FA032001F03FF8F6E747
:10BAD000545800207CB5194C207808B108207CBD52
:10BAE0000120A070002001F019F8112819D00020C1
:10BAF00001F02CF812480026006801908DF80060D3
:10BB00006846FDF7C1FF0F4901A810DF05000AD004
:10BB1000002020709DF80000FDF7DAFF2DB12846C7
:10BB20007CBD00207CBD0120F3E7A670667001F0AB
:10BB300039FA012001F00AF8F3E700005458002018
:10BB400014D70700759907000EB50749684600F03D
:10BB50003FF805E0D0E900108847684600F04FF84C
:10BB600002980028F6D10EBD30D7070001480078B2
:10BB700070470000545800200548817819B10078BA
:10BB800018B1FFF77DBF08207047FFF7A3BF000083
:10BB9000545800201FB568464BDF30B1052814D03B
:10BBA00004B0BDE81040FDF7E7BE084901A800F069
:10BBB0000FF806E0D0E900210098904701A800F0B6
:10BBC0001EF803980028E6D0F4E71FBD9CD70700B5
:10BBD000016009684160AFF3008010B5D0E9002131
:10BBE0005368994201D1002104E0D1E90034A34215
:10BBF00002D01946816010BD08314160F0E78168CC
:10BC000000290BD0026892680A44826041684B6840
:10BC10009A4203D108314160FFF7DFBF704700004F
:10BC20002DE9F04104461348134BC01A0C21B0FB18
:10BC3000F1F6A0694FF0FF3110F8022C02B921692A
:10BC4000002011E000EB400503EB85052F689742CB
:10BC500009D14F1C02D06F688F4204D194E80F00C5
:10BC6000AD68A84703E0401CB042EBD30120206040
:10BC7000BDE8F081F4D80700E8D8070010B51446F5
:10BC800012680830202A02D248F2145010BD002257
:10BC900000F0BAFF0028F9D120202060002010BD5C
:10BCA000083001F039B8083001F0F6B802480068F1
:10BCB000002800D0012070470004014030B587B053
:10BCC0000C460546182214496846FCF7A8FB207B61
:10BCD0000195124D8DF80000012806D0022812D0DF
:10BCE000062814D1607B049011E00D48FFF74CFB4F
:10BCF000A888E880607B0490617CD4F80E0061F332
:10BD00001F60059003E0B4F80D00A880E880684645
:10BD1000FFF7BEF907B030BDB8D40700F8570020D0
:10BD20009CD807002DE9F0410C460546FFF744FC7E
:10BD30000826B8B16969032041B3154A154B0F05B0
:10BD400005D0576DD3F808C00F4467451ED1B1F533
:10BD5000805F01D9042019E0506DD3F808C047185E
:10BD6000674502D96670BDE8F0815164D16C1065F9
:10BD70009164106369695A6801F6FF711044090BF8
:10BD80000022FFF70BF90028EDD005206070EAE7EC
:10BD9000987000201458002010B5044686B000208A
:10BDA000FFF7CCFC30B1154A18212046FDF7E6FD1F
:10BDB00006B010BD182212496846FCF730FB114846
:10BDC000026D114881688A4210D14068FFF7FAFB82
:10BDD0008DF80100FEF751FB8DF80100D4E9011246
:10BDE000684690470948FFF7BBFAE1E701208DF864
:10BDF0000100D4E9011268469047D9E799BD0700D0
:10BE000078D50700987000201458002085BE0700E0
:10BE100070B50E460446FFF7CFFB58B1174DD5E974
:10BE20001401401AA28A696C1044884204D9032084
:10BE3000707070BD0820FBE71149286B4968084401
:10BE4000D4E90331FFF7C0F820B1D4E90310BDE80D
:10BE500070400847A18A286B084A08442863A18AD1
:10BE6000286D483208442865A18A2069FEF70AF93E
:10BE7000A864B060286D706070BD000098700020EC
:10BE80001458002001490620C968084714580020AA
:10BE9000BFF34F8F05480168054A01F4E061114383
:10BEA0000160BFF34F8F00BFFDE700000CED00E025
:10BEB0000400FA0501460148FEF760BCA4D807005B
:10BEC0002DE9F0414FF440520C46204E53680121B9
:10BED0004FF0020CB34200D102211D4D2B6A012B01
:10BEE00000D1491C01276770037C1BB10020012B86
:10BEF00009D01BE084F804C0E868A0601548E06041
:10BF0000C0F5FC200FE0D2F804C0B4450ED120717A
:10BF10001078142801D9506900E00020A0604FF487
:10BF20008050E06090682061BDE8F0818B4207D2CC
:10BF30002771A868A060FEF725FFE060A869F2E716
:10BF4000FF212171A060E060EDE70000DBE5B15169
:10BF5000987000200080070030B58A1D8B79083169
:10BF600087B0022B33D153888489A3422FD1127A10
:10BF7000012A2CD1184C0DF1040C3CCC8CE83C006F
:10BF80000A89ADF80C204A890C3104911249ADF8A8
:10BF90000E208039114C096A0591CDF818D0018A1C
:10BFA00005AA6088ADDF18B96846FEF703F838B116
:10BFB0000020ADF8080001A96088B0DF50B106E0AC
:10BFC00040F2FD10ADF8080001A96088B0DF002044
:10BFD00007B030BD0120FBE7D0D40700F8570020A0
:10BFE000F8B50D4614460646694600F057FA002893
:10BFF0000ED0009BFF2B0AD8581C834207D86978C3
:10C000000222B2EB911F02D02979814201D2002095
:10C01000F8BD2370611C3046009A00F069FBF8BD42
:10C02000114600F0D6B8114600F0E3B8F8B50C465A
:10C0300015460646694600F031FA00280CD0009AF1
:10C04000501C904207D361780223B3EB911F02D0BA
:10C050002179814201D20020F8BD2946304600F006
:10C0600047FB009A0021A954F8BD2DE9FF410C4679
:10C070008E6817460546694600F00CFB00280ED076
:10C08000A06800280BD060783A46C0F3011002285F
:10C090003146684606D000F0DBF80199696004B0CB
:10C0A000BDE8F08100F086F8F7E77CB50D46144650
:10C0B000694600F090F9002820D02879082806D099
:10C0C000042809D002280AD001280CD015E0DDE9A7
:10C0D0000001C4E900010AE00098206006E0009831
:10C0E00000B2208002E0009840B22070C117DDE964
:10C0F000002350405940084301D000207CBD01205E
:10C100007CBD7CB50D461446694600F0A2F90028B6
:10C1100020D02879082807D00021042809D0022837
:10C120000AD001280CD014E0DDE90001C4E90001C7
:10C1300009E00098206006E0009880B2208002E0CC
:10C140000098C0B22070DDE90023504059400843F8
:10C1500001D000207CBD01207CBD7CB50D4614467D
:10C16000694600F076F9002821D02979082908D0FD
:10C170000098C21704290BD002290DD001290ED036
:10C1800014E0DDE90002C4E900020146134609E0BB
:10C19000C3170146206005E001B2218001E041B2F1
:10C1A0002170CB1741405340194301D000207CBD82
:10C1B00001207CBD70B50D46064614461146284642
:10C1C00000F083FA224629463046BDE8704000F070
:10C1D0003FB838B50C460422694600F089FA0028B9
:10C1E00006D09DF80310009861F31F6020600120C5
:10C1F00038BD1CB50C460822694600F079FA0028C3
:10C2000024D09DF801109DF800209DF80230080E02
:10C2100042EA012242EA034240EA13409DF8033019
:10C220009DF8041040EA132008439DF8051042EAE7
:10C23000036240EA01209DF8061040EA01409DF8A3
:10C24000071040EA0160C4E9002001201CBD000085
:10C250002DE9F04F04469DB0002000900646019065
:10C260004FF0FF3A0AA800F051F94FF0010BE946F0
:10C2700082E012AB05AA06A9204600F0C9F850B129
:10C280000AA8059900F053F960B10B98407810F0B6
:10C29000300F53D060E09DF84800002870D11DB0E9
:10C2A000BDE8F08F0598B04242D30B9D0AAE0B98C3
:10C2B000407800F00F00082812D0304600F04EF908
:10C2C0000B98A842F3D156460599B14230D3D4F821
:10C2D000088009919DF8181008910E990D6820E0CA
:10C2E0000B980678F0E729680F682FB1DDE908326E
:10C2F00029462046B84711E011948968DDE90872A3
:10C30000097891420CD1294617A8FEF787F985F8DC
:10C310000CB017AA39461198FDF720FF0028BED0AF
:10C32000AD6815B1A1684145DDD0A168414523D173
:10C330009DF81810204600F017FA1BE00C984028D2
:10C340000AD200F01F010BFA01F00C994A0959F8C2
:10C350002230034349F82230E5682DB10AAB9DF83D
:10C36000182020460599A8470AAA9DF818102046CB
:10C37000FDF7F4FE002892D0A06800287FF479AF82
:10C38000DDE90B0445780AA800F0E8F80028F7D1A9
:10C3900015F0300F03D10B98007800B1641CC4B1C4
:10C3A0000020494605E000BF51F82020521C0ED164
:10C3B000401CB0EB541FF7D3600959F8201004F06B
:10C3C0001F00C0F120022AFA02F0814201D00020B1
:10C3D00065E7012063E71CB50C46694600F039F8B3
:10C3E000002814D0DDE90002C10709D051084FEA46
:10C3F00030006FEA00026FEA0100C4E9002004E0A7
:10C4000051084FEA3000C4E900014FF001001CBDA3
:10C41000F8B507460020187008700E4610601C46DC
:10C4200015466946384600F039F801004FF0010022
:10C4300009D0009959B1C8082860009800F0070099
:10C4400030700120F8BDB96809B10020F8BD207036
:10C45000FBE72DE9F84300268846814634463546F9
:10C4600004E0402E02D30020BDE8F8836946484628
:10C4700000F06AF90028F7D09DF80070324607F006
:10C480007F00C10FFBF7BCFF29430443F61D0D4697
:10C490003806E6D4C8E900410120E5E7F8B50E46C4
:10C4A0000746694600F050F900280AD09DF8004080
:10C4B000200616D5072504F07F0403E0202D01D3C4
:10C4C0000020F8BD6946384600F03EF90028F8D053
:10C4D0009DF8001001F07F00A8400443ED1D080600
:10C4E000ECD401203460F8BD5968064A896891424D
:10C4F00006D1D0E90110044A401E491CC2E90110CE
:10C500007047000054D3070028580020C260002361
:10C510000160C0E901138B781A44026191F903307C
:10C520001A4442610878002800D00120704770B595
:10C5300045680E46044660680178B14206D14078ED
:10C5400000F00F00082801D0012070BD204600F047
:10C5500005F86068A842EED1002070BD30B5416892
:10C560000A785AB101F10C0343600A7B42B14C785E
:10C570000A79C4F30115032D07D00BE0002030BD6C
:10C58000C2680168FFF7C2FFF8E75D78C5F30115DF
:10C59000032D07D00225B5EB141F09D14C7914FBEC
:10C5A00002F209E08D7804690022641B046103E053
:10C5B000B5EB941F00D10422497811F0300F02D15D
:10C5C0008168491C81609C780169214411440161A2
:10C5D00093F9032011444161012030BD30B5416819
:10C5E000002487B0497801F00F02082A11D08A0987
:10C5F0001ED00222B2EB911F09D10269C1F30111D1
:10C600000229146001D0032901D14069047007B0E8
:10C6100030BD0069056808E02C7329466846FDF7BF
:10C62000FDFF6846FFF7DAFFAD68002DF4D1EEE7B5
:10C63000C1F30111012912D00229E6D00329E4D067
:10C640004268517801F00F0107290BD0916881B140
:10C650001279006907B0BDE83040FBF7E0BE4169E0
:10C660000C70EDE70169906807B0BDE8304000F05C
:10C670002CB81179006907B0BDE83040FBF7E8BE7F
:10C6800010B5034B002408C080E8160010BD000060
:10C6900057A0070038B50D4604466946FFF7FEFE71
:10C6A00000280BD0D4E90002D4E90213C5E9000246
:10C6B000C5E902130098814201D2002038BDA8606C
:10C6C000A168081AA060012038BD00B50A4687B0ED
:10C6D00001466846FFF71AFF002807D06846FFF7B3
:10C6E0007DFF6846FFF73AFF0028F7D107B000BD8D
:10C6F0007FB514460546A9B9124A2868904208D168
:10C7000010E0102269462846FFF7F2FF002807D004
:10C71000103C102CF5D8224669462846FFF7E8FF62
:10C7200004B070BDA868A04201D20020F8E72B68D1
:10C730002246284698470028F2D0A868001BA86027
:10C740000120EDE757A0070010B5044680680028D7
:10C7500009D02368012220469847002803D0A0680A
:10C76000401EA060012010BD38B5002439B1012958
:10C7700012D0022912D005291DD0002038BD05464F
:10C78000012269462846FFF7B3FF90B19DF80000EB
:10C790000006F5D4012038BD08220DE005466946A3
:10C7A000FFF77CFE28B100212846009AFFF7A0FF82
:10C7B00038BD204638BD0422BDE838400021FFF7CF
:10C7C00097BF00002DE9F041264C1546064679B387
:10C7D00003F5005324495A68B06D8A4230D1421E95
:10C7E000C2F30B02801A41F6FF729F681044874221
:10C7F00026D34FF4405042688A4202D04FF00101E4
:10C8000001E04FF0000114D10178142901D94169E8
:10C8100000E0002115481A78B1FBF0F1142A01D983
:10C820005A6900E00022B2FBF0F0814202D10AE036
:10C8300011E041B125B10B481830FEF7C9FA03E009
:10C840000020BDE8F0810DB1AC2000E0A520E06241
:10C85000B06D606301E0AA20E0620DB17068E06035
:10C860000120EEE798700020DBE5B15140420F0057
:10C87000034802490068FDF72DBF00005058002012
:10C88000D4D507002DE9F041224C0025224E207A14
:10C89000012730B92148311D0068FDF726FF3060BF
:10C8A00038B1022020723168087928B101281CD1E2
:10C8B00014E06560BDE8F081D1E90503C01A1428D1
:10C8C00000D31420B7EB900F01D2820800E00122C0
:10C8D0000869C9681844194429DF03E0D1E9030154
:10C8E000084428DF58B1112812D003213068FDF721
:10C8F0009AFD25726560BDE8F041FFF7B9BF207C65
:10C900000028D7D1BDE8F04100210220FEF75ABF30
:10C910002772CFE7187700204C580020D4D50700A5
:10C9200010B5074C201DFDF7F9FE002806D1607CEC
:10C93000002803D1BDE81040FFF7A4BF10BD0000E0
:10C940001877002010B510461A46FBF768FD002046
:10C9500010BD10B510461A46FBF761FD002010BD52
:10C960002DE9F0411E681C461546074621B10129F4
:10C9700018D0052923D119E000202060401C206038
:10C98000B0421CD8012229463846FFF7B1FE0028E4
:10C9900006D015F8010B000601D52068EEE701204E
:10C9A000BDE8F08108200246186002E0042002463B
:10C9B000186029463846BDE8F041FFF799BE0020CF
:10C9C000EEE70000BFF34F8F05480168054A01F408
:10C9D000E06111430160BFF34F8F00BFFDE700002E
:10C9E0000CED00E00400FA0570B516460A46044650
:10C9F000C11C104600F0B0FB054661193046C91C49
:10CA000000F0AAFB284470BD03B5094A85B0D2E9FD
:10CA10001612CDE9001207498989ADF8001006A960
:10CA2000CDE90210044869464088AEDF07B000BD7A
:10CA300050D40700CC5C0020F8570020084670470F
:10CA40000846704770B5FEF79BFC114A114E136BF8
:10CA5000546B916CE21A551EC5F30B05521B42F242
:10CA6000040518446D5802F6FF72B54201D0032048
:10CA700070BD1944A34201D1002070BD0823FDF709
:10CA800051FD0028F9D1BDE87040FEF769BC0000F7
:10CA900098700020DBE5B15170B5034600200246D6
:10CAA0004FF4405409E000BF53F82250A689B54224
:10CAB00001D1012070BD521CD2B28A42F4D370BDA4
:10CAC00010B54FF44051144B4A68017C9A4219D179
:10CAD00000F1140231B1436923B1BDE810401046A2
:10CAE000FFF7DABF90F8553013B1012B08D10CE0F5
:10CAF000012905D9406918B91046FFF7CDFF04E0B8
:10CB0000012010BD19B1416909B1002010BD0078A4
:10CB10000028F5D110BD0000DBE5B1513EB504465B
:10CB200009496846FFF754F808E000BFD0E9002142
:10CB30002046904730B16846FFF761F80298002818
:10CB4000F4D13EBD11203EBD18D707003EB50446C6
:10CB500008496846FFF73CF807E000BFD0E900212C
:10CB6000204690476846FFF74AF802980028F5D11A
:10CB70003EBD000024D7070002460348014B006871
:10CB800000F01AB8E06E002024580020002258213E
:10CB9000001DFDF777BA00000B1A1118054A10B5F1
:10CBA000126810441A46FBF75EFC08B1002010BD65
:10CBB000012010BD245800202DE9F04114464FF407
:10CBC000DC751E460F4680462A46FBF74CFC30B10A
:10CBD000002201214046FEF7E1F998B905E00CB1C9
:10CBE0000020A0470020BDE8F0812A4639463046A3
:10CBF000FBF715FC23462A4631464046FEF7E4F98A
:10CC00000028F0D00320EEE770B516460D4604006C
:10CC100007D035B1206C802200213828225403D35C
:10CC200007E00E2070BD2154401C3828FBD30BE0D8
:10CC30002154401C4028FBD32146084600F096F8BA
:10CC400038212046FBF704FC216CD4E912304A0F4E
:10CC5000C900383459185041C4E90410227CE271EB
:10CC60000A0A42EA0062A2710A0C42EA00426271B8
:10CC7000020242EA116020716069E070010AA1704D
:10CC8000010C6170000E04F838092146084600F0D6
:10CC90006DF84FF00002EEB1E06ED100C840A8542C
:10CCA000A36ECB40A8180371636ECB400372236E52
:10CCB000CB400373E36DCB400374A36DCB4003758E
:10CCC000636DCB400376236DCB40521C0377042A5F
:10CCD000E2D31FE018235042216D03EBC000C14096
:10CCE000A954666DC640A9180E71A66DC6400E7295
:10CCF000E66DC6400E73266EC6400E74666EC64064
:10CD00000E75A66EC6400E76E66EC640521C0E77B5
:10CD1000042AE0D3002070BDA8B100210164C0E95D
:10CD200012110A4901650A4941650A4981650A49A2
:10CD3000C1650A4901660A4941660A4981660A498C
:10CD4000C166002070470E207047000067E6096A40
:10CD500085AE67BB72F36E3C3AF54FA57F520E511C
:10CD60008C68059BABD9831F19CDE05B2DE9F04F93
:10CD7000C8B0002213466F46CC181B1D2568E47806
:10CD80002DBA25F0FF05254347F82250521C102AE2
:10CD9000F2D31BE007EB820151F8083C4FEA7344E1
:10CDA00084EAF34484EA932451F83C3C4FEAF315B7
:10CDB00085EAB34585EAD303234451F81C4C51F866
:10CDC000401C2144194447F82210521C402AE1D348
:10CDD000036D4793416D4691846D4594C26D4492B5
:10CDE0009246026E4392456E4295A946856E4195E4
:10CDF000C66E4096B34600264FEAB21787EAF2277E
:10CE000087EA726C02EA090725EA020887EA08073E
:10CE1000BC44204F57F8268008EB0B07BC445DF854
:10CE20002670AB460CEB070E4FEAB30787EA733761
:10CE300087EAB35C81EA04074D4601EA040891469B
:10CE40001F400AEB0E02A24687EA08070C46BC44C4
:10CE50001946761C0EEB0C03402ECDD3479E33446F
:10CE60000365469B19444165459921448165449970
:10CE70005144C16543991144016642994944416650
:10CE800041992944816640995944C16648B0BDE83A
:10CE9000F08F000004D607002DE9F04116460F463A
:10CEA000040004D006B317B10025A8461AE00E20EE
:10CEB000BDE8F081216C785D6054206C401C2064DA
:10CEC00040280ED121460846FFF750FFD4E9120151
:10CED0004FF40072801841F10001C4F84080C4E9A9
:10CEE00012016D1CB542E5D30020E1E73EB54FF0DD
:10CEF00020001400029002D019B116203EBD13206C
:10CF00003EBD02A91548CDE9000115481549D0E9F3
:10CF100001231548FDF746FE10B92278402A01D0BA
:10CF20000A203EBD0D48611C4038FBF778FA0B48DB
:10CF300020214038FDF7C7FE084840214038CDE9A0
:10CF40000001A0F148010648044A0C30029BFDF79D
:10CF5000FDFD08B105203EBD01203EBDE07400206E
:10CF60002858002008D30700D073002010B51620E1
:10CF7000FCF768FC48B10A4882684FF4800152B15E
:10CF8000016821F48001016010BDBDE8104042F24B
:10CF90000100FCF7F1BC4FF0E020C0F8801110BD9B
:10CFA0002075002010B51620FCF74CFCA0B11148EC
:10CFB00090F800044009082811D20121814011F0A5
:10CFC000EC0F0CD00C4882684FF480016AB1016804
:10CFD00041F48001016010BD42F2010001E042F223
:10CFE0000200BDE81040FCF7C7BC4FF0E020C0F8DD
:10CFF000001110BD16E000E0207500201FB50E489E
:10D0000000F15C01826B6846FFF73AFB0B489DE834
:10D010000E0080E80E00094909480B4AC86009491A
:10D0200000204860886009490448FFF7C3F80028D9
:10D0300000D0012004B010BD98700020487400207A
:10D04000E9C40700285800205072002020D40700AF
:10D0500070B503466FF07F40814200D20846124D02
:10D06000D5F804250244081A411E22F07F42586078
:10D07000952902D29630963A58601C7B05EB8400C5
:10D08000C0F8402509494FF4F86088474FF4A07074
:10D0900000EB84012846FEF75BFC4FF48030A04093
:10D0A000C5F8040370BD00000040024001D3070032
:10D0B00070B5184E307800282BD11748006801252C
:10D0C000C0F3004008B915480560154C4FF4807155
:10D0D0002046FEF73DFC4FF4A0712046FEF738FCD9
:10D0E0004FF4A2712046FEF733FC0E49A02081F8D0
:10D0F00000040C4910202039C1F88002C1F8000159
:10D100000020C4F80805A56025600220C4F80403C7
:10D11000357070BDC0570020180400400800004062
:10D120000040024024E000E070B515460E4604467B
:10D13000FFF7BEFF314620462560BDE87040FFF78F
:10D1400087BF0000017B4FF4803088400149C1F85F
:10D1500008037047004002400870020A4A70020C3F
:10D160008A70000EC87004207047000010B5024895
:10D17000FDF7D1FA002010BD4858002010B5142149
:10D180000448FBF765F904480068FDF77DFA0020C4
:10D1900010BD000018770020D4D5070030B100681A
:10D1A0000549884205D048F20250704748F20150C4
:10D1B00070470020704700006E52464870B5FEF779
:10D1C00075FD002811D00020084A094B094C0121A7
:10D1D000166801FA00F52E4203D004EB8005C5F86D
:10D1E0000036401CC0B20728F2D370BD08050140CC
:10D1F0003546526E00000140FFF7E0BF0020704747
:10D20000002070472DE9FC4180461C4617460E461B
:10D210000C48089DFDF782FA10B11120BDE8FC8191
:10D22000A20839463046FEF771FB0648FDF773FA4F
:10D2300033463A4601214046CDE90045FDF7D8F88E
:10D240000020EBE7485800202DE9F84F114D8846A3
:10D2500081461E4617466946DDF828A02868FDF776
:10D260002EFA040013D01C21FBF7F2F800202071E5
:10D27000C4F80090C4E90486C4E902A76946286896
:10D28000FDF73EFAFFF74CFB0020BDE8F88F0420C5
:10D29000FBE70000D4D507004BFF81848E8123CEAD
:10D2A000224F76A07CC592E6ED57353C07B84D601D
:10D2B00097D6CC192428B1811EAFF962F3E6C66473
:10D2C0000E1547D1E6191D0209F55A9BE1F2E29FBE
:10D2D0005B296A6E07467281111213140D0E0F102E
:10D2E000000000000000000000000000000000003E
:10D2F00000000000FFFFFFFF000000000000000131
:10D300000338FDD870470000A1BC0700A7BC070088
:10D310007DBC070020000000780000000000000035
:10D320004800280000204000A587070000000000FA
:10D3300001010000010000000000000002050000E3
:10D3400021000000000000000000000000000000BC
:10D3500000000000011104FC0400000000000000B7
:10D36000021104FC0400000000000000032104FC82
:10D370000410000000000000041101FF0100000083
:10D3800000000000051102FE040000000000000083
:10D39000061104FC0400000000000000071104FC5A
:10D3A0000400000000000000081701FF2200000038
:10D3B00030D30700091001FF010000002CD3070043
:10D3C000000000000000000000000000011101FF4B
:10D3D0000100000000000000021702FE940000009F
:10D3E00054D307000000000000000000000000000F
:10D3F0000107000098000000CCD3070002010000E4
:10D4000001000000000000000305000041000000D2
:10D41000000000000000000000000000000000000C
:10D42000011704FC98000000CCD30700021704FC8D
:10D43000DC000000F0D30700000000000000000046
:10D4400000000000000000000000000000000000DC
:10D450000011030000111300020000000100000091
:10D460000338FDD870470C000C0000005802000083
:10D4700002000000000000000200000000000000A8
:10D48000905C002009000000000000000000000087
:10D490000100000000000000280000000000000063
:10D4A000000000000001000000000100000000007A
:10D4B000000000000000000000000000000000006C
:10D4C0002D9C07000000000000000000000000008C
:10D4D0000200000000000100000000000000000049
:10D4E00008000000000000002D9C0700B5BE0700EA
:10D4F0000000000000000000040000000000000028
:10D50000000000000000000000000000000000001B
:10D51000000000000000000000000000000000000B
:10D52000F4000000000000001800000000000000EF
:10D5300000000000000000000000000000000000EB
:10D5400000000000000000000000000000000000DB
:10D55000170000000000000050EADA308883B89F0E
:10D56000604F15F30000C98E0200000000000000AB
:10D5700000000000000000000400000000000000A7
:10D58000000000000000000000000000000000009B
:10D59000000100000000000000000000000000008A
:10D5A0000000000000000000001000000400000067
:10D5B00001000000B9A507006DD1070045C90700AB
:10D5C00005D207005DA307003DCA0700FDD1070093
:10D5D000FDA507002C7500200010000004000000CD
:10D5E00001000000C5A507007DD1070053C9070051
:10D5F00049D20700A5A3070041CA070001D20700CE
:10D600000DA60700982F8A4291443771CFFBC0B511
:10D61000A5DBB5E95BC25639F111F159A4823F92FD
:10D62000D55E1CAB98AA07D8015B8312BE85312456
:10D63000C37D0C55745DBE72FEB1DE80A706DC9B17
:10D6400074F19BC1C1699BE48647BEEFC69DC10FC3
:10D65000CCA10C246F2CE92DAA84744ADCA9B05CFF
:10D66000DA88F97652513E986DC631A8C82703B0C2
:10D67000C77F59BFF30BE0C64791A7D55163CA06D0
:10D6800067292914850AB72738211B2EFC6D2C4DDC
:10D69000130D385354730A65BB0A6A762EC9C281CA
:10D6A000852C7292A1E8BFA24B661AA8708B4BC260
:10D6B000A3516CC719E892D1240699D685350EF48A
:10D6C00070A06A1016C1A419086C371E4C77482741
:10D6D000B5BCB034B30C1C394AAAD84E4FCA9C5BB7
:10D6E000F36F2E68EE828F746F63A5781478C88408
:10D6F0000802C78CFAFFBE90EB6C50A4F7A3F9BEEA
:10D70000F27871C6C0D80700C8D807000000000032
:10D71000000000000010020704D7070014D707001C
:10D72000080000003CD707004CD7070008000000A5
:10D730004CD707005CD7070008000000E0D80700BE
:10D74000E8D807000000000000000000D0D8070063
:10D75000E0D807000000000000000000000000000A
:10D76000000000000000000000000000B8D8070022
:10D77000C0D807000000000000000000B8570020DB
:10D780005CD707007CD7070008000000C8D8070056
:10D79000D0D8070000000000000000008CD7070070
:10D7A0009CD70700080000005BC1070003C1070009
:10D7B000ABC0070021C0070027C00700E1BF07007A
:10D7C0002DC007006BC0070000000000082000010A
:10D7D000FFFFFFFFFFFFFFFFFFFFFFFF0000000055
:10D7E000000000000000000001000000FFFFFFFF3C
:10D7F000512563FCC2CAB9F3849E17A7ADFAE6BCF3
:10D80000FFFFFFFFFFFFFFFF00000000FFFFFFFF24
:10D8100096C298D84539A1F4A033EB2D817D0377CA
:10D82000F240A463E5E6BCF847422CE1F2D1176B65
:10D83000F551BF376840B6CBCE5E316B5733CE2B38
:10D84000169E0F7C4AEBE78E9B7F1AFEE242E34F67
:10D850004B60D2273E3CCE3BF6B053CCB0061D65A4
:10D86000BC86987655BDEBB3E7933AAAD835C65A2D
:10D87000538607001D94070035920700F4D807006F
:10D88000B8570020B800000024980700ACD9070062
:10D8900070580020C03E000034980700459D0700E6
:10D8A000E59C070008580020E05C0020F15C0020A7
:10D8B000F45C0020F4000000DD9D07000000000083
:10D8C0008DB7070000000000C5B70700000000008A
:10D8D00021BA07000000000095BB0700000000000F
:10D8E000A5B70700000000000000000003000000D2
:10D8F00081B10700000000000000000000000000EF
:10D90000D0570020E0570020000000000000000079
:10D910000000000000000000000000000000000007
:10D9200000000000000000000100000000000000F6
:10D9300000000000FF00FFFF0000000000000000EA
:10D9400000000000000000000000000000000000D7
:10D9500001000000000000000000000000000000C6
:10D9600000E00700000000000000000000000000D0
:10D9700000000000000000000000000000000000A7
:10D980000000000000000000000000000000000097
:10D99000000000000090D003000000000000000024
:0CD9A000ADA2070000100000000008000D
:020000041000EA
:041014000080070051
:020000041000EA
:0410180000E00700ED
:04000005000782016D
:00000001FF
